{
  "_format": "hh-sol-artifact-1",
  "contractName": "DappBnb",
  "sourceName": "src/contracts/DappBnb.sol",
  "abi": [
    {
      "inputs": [
        {
          "internalType": "uint256",
          "name": "",
          "type": "uint256"
        }
      ],
      "name": "apartments",
      "outputs": [
        {
          "internalType": "uint256",
          "name": "id",
          "type": "uint256"
        },
        {
          "internalType": "string",
          "name": "name",
          "type": "string"
        },
        {
          "internalType": "string",
          "name": "description",
          "type": "string"
        },
        {
          "internalType": "string",
          "name": "images",
          "type": "string"
        },
        {
          "internalType": "uint256",
          "name": "rooms",
          "type": "uint256"
        },
        {
          "internalType": "uint256",
          "name": "price",
          "type": "uint256"
        },
        {
          "internalType": "address",
          "name": "owner",
          "type": "address"
        },
        {
          "internalType": "bool",
          "name": "booked",
          "type": "bool"
        },
        {
          "internalType": "bool",
          "name": "deleted",
          "type": "bool"
        },
        {
          "internalType": "uint256",
          "name": "timestamp",
          "type": "uint256"
        }
      ],
      "stateMutability": "view",
      "type": "function"
    },
    {
      "inputs": [
        {
          "internalType": "string",
          "name": "name",
          "type": "string"
        },
        {
          "internalType": "string",
          "name": "description",
          "type": "string"
        },
        {
          "internalType": "string",
          "name": "images",
          "type": "string"
        },
        {
          "internalType": "uint256",
          "name": "rooms",
          "type": "uint256"
        },
        {
          "internalType": "uint256",
          "name": "price",
          "type": "uint256"
        }
      ],
      "name": "createAppartment",
      "outputs": [],
      "stateMutability": "nonpayable",
      "type": "function"
    },
    {
      "inputs": [
        {
          "internalType": "uint256",
          "name": "id",
          "type": "uint256"
        }
      ],
      "name": "deleteAppartment",
      "outputs": [],
      "stateMutability": "nonpayable",
      "type": "function"
    },
    {
      "inputs": [],
      "name": "getApartments",
      "outputs": [
        {
          "components": [
            {
              "internalType": "uint256",
              "name": "id",
              "type": "uint256"
            },
            {
              "internalType": "string",
              "name": "name",
              "type": "string"
            },
            {
              "internalType": "string",
              "name": "description",
              "type": "string"
            },
            {
              "internalType": "string",
              "name": "images",
              "type": "string"
            },
            {
              "internalType": "uint256",
              "name": "rooms",
              "type": "uint256"
            },
            {
              "internalType": "uint256",
              "name": "price",
              "type": "uint256"
            },
            {
              "internalType": "address",
              "name": "owner",
              "type": "address"
            },
            {
              "internalType": "bool",
              "name": "booked",
              "type": "bool"
            },
            {
              "internalType": "bool",
              "name": "deleted",
              "type": "bool"
            },
            {
              "internalType": "uint256",
              "name": "timestamp",
              "type": "uint256"
            }
          ],
          "internalType": "struct DappBnb.ApartmentStruct[]",
          "name": "",
          "type": "tuple[]"
        }
      ],
      "stateMutability": "view",
      "type": "function"
    },
    {
      "inputs": [
        {
          "internalType": "uint256",
          "name": "id",
          "type": "uint256"
        },
        {
          "internalType": "string",
          "name": "name",
          "type": "string"
        },
        {
          "internalType": "string",
          "name": "description",
          "type": "string"
        },
        {
          "internalType": "string",
          "name": "images",
          "type": "string"
        },
        {
          "internalType": "uint256",
          "name": "rooms",
          "type": "uint256"
        },
        {
          "internalType": "uint256",
          "name": "price",
          "type": "uint256"
        }
      ],
      "name": "updateAppartment",
      "outputs": [],
      "stateMutability": "nonpayable",
      "type": "function"
    }
  ],
  "bytecode": "0x608060405234801561001057600080fd5b5061149b806100206000396000f3fe608060405234801561001057600080fd5b50600436106100575760003560e01c8063abb8be171461005c578063ade652db1461008e578063b1c98099146100a3578063d5ea1cb8146100b8578063dec30d39146100cb575b600080fd5b61006f61006a366004610fdd565b6100de565b6040516100859a99989796959493929190611043565b60405180910390f35b6100a161009c36600461116a565b6102eb565b005b6100ab610649565b6040516100859190611204565b6100a16100c6366004611305565b6108c3565b6100a16100d9366004610fdd565b610e59565b600181815481106100ee57600080fd5b60009182526020909120600890910201805460018201805491935090610113906113a9565b80601f016020809104026020016040519081016040528092919081815260200182805461013f906113a9565b801561018c5780601f106101615761010080835404028352916020019161018c565b820191906000526020600020905b81548152906001019060200180831161016f57829003601f168201915b5050505050908060020180546101a1906113a9565b80601f01602080910402602001604051908101604052809291908181526020018280546101cd906113a9565b801561021a5780601f106101ef5761010080835404028352916020019161021a565b820191906000526020600020905b8154815290600101906020018083116101fd57829003601f168201915b50505050509080600301805461022f906113a9565b80601f016020809104026020016040519081016040528092919081815260200182805461025b906113a9565b80156102a85780601f1061027d576101008083540402835291602001916102a8565b820191906000526020600020905b81548152906001019060200180831161028b57829003601f168201915b505050600484015460058501546006860154600790960154949591949093506001600160a01b038216925060ff600160a01b8304811692600160a81b900416908a565b60008551116103385760405162461bcd60e51b81526020600482015260146024820152734e616d652063616e6e6f7420626520656d70747960601b60448201526064015b60405180910390fd5b60008451116103895760405162461bcd60e51b815260206004820152601b60248201527f4465736372697074696f6e2063616e6e6f7420626520656d7074790000000000604482015260640161032f565b60008351116103d35760405162461bcd60e51b8152602060048201526016602482015275496d616765732063616e6e6f7420626520656d70747960501b604482015260640161032f565b6000821161041a5760405162461bcd60e51b8152602060048201526014602482015273526f6f6d732063616e6e6f74206265207a65726f60601b604482015260640161032f565b600081116104615760405162461bcd60e51b815260206004820152601460248201527350726963652063616e6e6f74206265207a65726f60601b604482015260640161032f565b6104c460405180610140016040528060008152602001606081526020016060815260200160608152602001600081526020016000815260200160006001600160a01b03168152602001600015158152602001600015158152602001600081525090565b6000805490806104d3836113e4565b909155508152602080820187815260408301879052606083018690526080830185905260a083018490523360c08401524261012084015260018054808201825560009190915283517fb10e2d527612073b26eecdfd717e6a320cf44b4afac2b0732d9fcbe2b7fa0cf6600890920291820190815591518051859461057b937fb10e2d527612073b26eecdfd717e6a320cf44b4afac2b0732d9fcbe2b7fa0cf701920190610f44565b5060408201518051610597916002840191602090910190610f44565b50606082015180516105b3916003840191602090910190610f44565b506080820151600482015560a0820151600582015560c082015160068201805460e08501516101008601511515600160a81b0260ff60a81b19911515600160a01b026001600160a81b03199093166001600160a01b0390951694909417919091171691909117905561012090910151600790910155516000908152600260205260409020805460ff191660011790555050505050565b60606001805480602002602001604051908101604052809291908181526020016000905b828210156108ba578382906000526020600020906008020160405180610140016040529081600082015481526020016001820180546106ab906113a9565b80601f01602080910402602001604051908101604052809291908181526020018280546106d7906113a9565b80156107245780601f106106f957610100808354040283529160200191610724565b820191906000526020600020905b81548152906001019060200180831161070757829003601f168201915b5050505050815260200160028201805461073d906113a9565b80601f0160208091040260200160405190810160405280929190818152602001828054610769906113a9565b80156107b65780601f1061078b576101008083540402835291602001916107b6565b820191906000526020600020905b81548152906001019060200180831161079957829003601f168201915b505050505081526020016003820180546107cf906113a9565b80601f01602080910402602001604051908101604052809291908181526020018280546107fb906113a9565b80156108485780601f1061081d57610100808354040283529160200191610848565b820191906000526020600020905b81548152906001019060200180831161082b57829003601f168201915b505050918352505060048201546020808301919091526005830154604083015260068301546001600160a01b038116606084015260ff600160a01b8204811615156080850152600160a81b90910416151560a083015260079092015460c090910152908252600192909201910161066d565b50505050905090565b60008681526002602052604090205460ff166109185760405162461bcd60e51b8152602060048201526014602482015273105c1c185c9d1b595b9d081b9bdd08199bdd5b9960621b604482015260640161032f565b336001600160a01b0316600187815481106109355761093561140d565b60009182526020909120600660089092020101546001600160a01b03161461096f5760405162461bcd60e51b815260040161032f90611423565b60008551116109b75760405162461bcd60e51b81526020600482015260146024820152734e616d652063616e6e6f7420626520656d70747960601b604482015260640161032f565b6000845111610a085760405162461bcd60e51b815260206004820152601b60248201527f4465736372697074696f6e2063616e6e6f7420626520656d7074790000000000604482015260640161032f565b6000835111610a525760405162461bcd60e51b8152602060048201526016602482015275496d616765732063616e6e6f7420626520656d70747960501b604482015260640161032f565b60008211610a995760405162461bcd60e51b8152602060048201526014602482015273526f6f6d732063616e6e6f74206265207a65726f60601b604482015260640161032f565b60008111610ae05760405162461bcd60e51b815260206004820152601460248201527350726963652063616e6e6f74206265207a65726f60601b604482015260640161032f565b600060018781548110610af557610af561140d565b90600052602060002090600802016040518061014001604052908160008201548152602001600182018054610b29906113a9565b80601f0160208091040260200160405190810160405280929190818152602001828054610b55906113a9565b8015610ba25780601f10610b7757610100808354040283529160200191610ba2565b820191906000526020600020905b815481529060010190602001808311610b8557829003601f168201915b50505050508152602001600282018054610bbb906113a9565b80601f0160208091040260200160405190810160405280929190818152602001828054610be7906113a9565b8015610c345780601f10610c0957610100808354040283529160200191610c34565b820191906000526020600020905b815481529060010190602001808311610c1757829003601f168201915b50505050508152602001600382018054610c4d906113a9565b80601f0160208091040260200160405190810160405280929190818152602001828054610c79906113a9565b8015610cc65780601f10610c9b57610100808354040283529160200191610cc6565b820191906000526020600020905b815481529060010190602001808311610ca957829003601f168201915b50505091835250506004820154602080830191909152600583015460408084019190915260068401546001600160a01b03811660608086019190915260ff600160a01b830481161515608080880191909152600160a81b90930416151560a08087019190915260079096015460c0909501949094529185018b905284018990529083018790528201859052810183905260018054919250829189908110610d6f57610d6f61140d565b9060005260206000209060080201600082015181600001556020820151816001019080519060200190610da3929190610f44565b5060408201518051610dbf916002840191602090910190610f44565b5060608201518051610ddb916003840191602090910190610f44565b506080820151600482015560a0820151600582015560c082015160068201805460e08501516101008601511515600160a81b0260ff60a81b19911515600160a01b026001600160a81b03199093166001600160a01b039095169490941791909117169190911790556101209091015160079091015550505050505050565b60008181526002602052604090205460ff16610eae5760405162461bcd60e51b8152602060048201526014602482015273105c1c185c9d1b595b9d081b9bdd08199bdd5b9960621b604482015260640161032f565b336001600160a01b031660018281548110610ecb57610ecb61140d565b60009182526020909120600660089092020101546001600160a01b031614610f055760405162461bcd60e51b815260040161032f90611423565b6001808281548110610f1957610f1961140d565b906000526020600020906008020160060160156101000a81548160ff02191690831515021790555050565b828054610f50906113a9565b90600052602060002090601f016020900481019282610f725760008555610fb8565b82601f10610f8b57805160ff1916838001178555610fb8565b82800160010185558215610fb8579182015b82811115610fb8578251825591602001919060010190610f9d565b50610fc4929150610fc8565b5090565b5b80821115610fc45760008155600101610fc9565b600060208284031215610fef57600080fd5b5035919050565b6000815180845260005b8181101561101c57602081850181015186830182015201611000565b8181111561102e576000602083870101525b50601f01601f19169290920160200192915050565b60006101408c835280602084015261105d8184018d610ff6565b90508281036040840152611071818c610ff6565b90508281036060840152611085818b610ff6565b6080840199909952505060a08101959095526001600160a01b039390931660c085015290151560e0840152151561010083015261012090910152949350505050565b634e487b7160e01b600052604160045260246000fd5b600082601f8301126110ee57600080fd5b813567ffffffffffffffff80821115611109576111096110c7565b604051601f8301601f19908116603f01168101908282118183101715611131576111316110c7565b8160405283815286602085880101111561114a57600080fd5b836020870160208301376000602085830101528094505050505092915050565b600080600080600060a0868803121561118257600080fd5b853567ffffffffffffffff8082111561119a57600080fd5b6111a689838a016110dd565b965060208801359150808211156111bc57600080fd5b6111c889838a016110dd565b955060408801359150808211156111de57600080fd5b506111eb888289016110dd565b9598949750949560608101359550608001359392505050565b60006020808301818452808551808352604092508286019150828160051b87010184880160005b838110156112f757603f1989840301855281516101408151855288820151818a87015261125a82870182610ff6565b91505087820151858203898701526112728282610ff6565b9150506060808301518683038288015261128c8382610ff6565b92505050608080830151818701525060a080830151818701525060c0808301516112c0828801826001600160a01b03169052565b505060e08281015115159086015261010080830151151590860152610120918201519190940152938601939086019060010161122b565b509098975050505050505050565b60008060008060008060c0878903121561131e57600080fd5b86359550602087013567ffffffffffffffff8082111561133d57600080fd5b6113498a838b016110dd565b9650604089013591508082111561135f57600080fd5b61136b8a838b016110dd565b9550606089013591508082111561138157600080fd5b5061138e89828a016110dd565b9350506080870135915060a087013590509295509295509295565b600181811c908216806113bd57607f821691505b602082108114156113de57634e487b7160e01b600052602260045260246000fd5b50919050565b600060001982141561140657634e487b7160e01b600052601160045260246000fd5b5060010190565b634e487b7160e01b600052603260045260246000fd5b60208082526022908201527f556e617574686f72697a656420706572736f6e6e656c2c206f776e6572206f6e6040820152616c7960f01b60608201526080019056fea264697066735822122061d088f346b4d04022bd8d492123e531c01cc470ec43072272916ef2c83d679564736f6c634300080b0033",
  "linkReferences": {},
  "deployedLinkReferences": {}
}